:100000000C9482000C94AA000C94AA000C94AA00F0
:100010000C94AA000C94AA000C94AA000C94AA00B8
:100020000C94AA000C94AA000C94AA000C94AA00A8
:100030000C94AA000C94AA000C94AA000C94AA0098
:100040000C94570B0C94AA000C94130C0C94ED0B0D
:100050000C94AA000C94AA000C94AA000C94AA0078
:100060000C94AA000C94AA00C400CA00D000D600C8
:10007000DC00E200E80023022A02310238023F02DB
:100080005602460256024D023D0ECC0E1A0ECC0E02
:100090002C0ECC0ECC0ECC0ECC0ECC0E4E0ECC0EAE
:1000A000CC0EFA0DCC0ECC0E5F0ECC0ECC0E0A0E82
:1000B0000000000800020100000304070000000027
:1000C0000000000000000000250028002B000000B8
:1000D0000000240027002A0004040404040404048B
:1000E00002020202020203030303030301020408E3
:1000F0001020408001020408102001020408102092
:10010000440F450C11241FBECFEFD8E0DEBFCDBF9A
:1001100024E0A8ECB1E001C01D92A334B207E1F7DE
:1001200011E0A0E0B1E0E0EDF9E202C005900D922F
:10013000A83CB107D9F710E0C1E8D0E004C021978E
:10014000FE010E949E12C038D107C9F70E94490CD7
:100150000C94DB140C940000CF93DF934770552769
:1001600066277727FA013197EC01A881B981E7303A
:10017000F10520F4EC5CFF4F0C949E121496ED9167
:10018000FC91159761E029C01496ED91FC911597AB
:1001900065E023C01496ED91FC91159764E01DC0B5
:1001A0001496ED91FC91159766E017C01496ED91A9
:1001B000FC91159762E011C01496ED91FC91159792
:1001C0006AE00BC01496ED91FC91159768E005C0AC
:1001D0001496ED91FC91159769E0DF91CF91099408
:1001E000CF93DF93EC01CB01BA0126E030E040E091
:1001F00050E00E947F12623071058105910559F12E
:100200008CF46115710581059105F1F0613071057E
:1002100081059105C1F5E881F9810480F581E02D22
:1002200065E02DC0643071058105910511F1D4F0B0
:10023000653071058105910531F5E881F98104800A
:10024000F581E02D66E01BC0E881F9810480F5812D
:10025000E02D64E014C0E881F9810480F581E02D8F
:1002600061E00DC0E881F9810480F581E02D63E053
:1002700006C0E881F9810480F581E02D62E0CE01BD
:10028000DF91CF910994DF91CF9108954370552765
:1002900066277727DC01ED91FC910480F581E02D44
:1002A000423051056105710571F04330510561051A
:1002B000710559F0413051056105710511F065E096
:1002C00005C066E003C06AE001C069E00994CF930D
:1002D000DF93EC01CB01BA0123E030E040E050E0D5
:1002E0000E947F12613071058105910581F06230B5
:1002F00071058105910591F0672B682B692BC1F47D
:10030000E881F9810480F581E02D64E00DC0E88189
:10031000F9810480F581E02D61E006C0E881F98172
:100320000480F581E02D62E0CE01DF91CF91099448
:10033000DF91CF9108954370552766277727DC0119
:10034000ED91FC910480F581E02D4230510561056D
:10035000710571F0433051056105710559F0413067
:1003600051056105710511F062E005C063E003C04D
:1003700061E001C060E009940F931F93CF93DF9376
:10038000EC01E881F9810480F581E02D8C010D5BA1
:100390001F4FD8018C91811102C060E001C062E062
:1003A000CE010995E881F9810480F581E02DD8011D
:1003B0008C91811102C061E001C063E0CE0109951A
:1003C000EBA5FCA5E230F10538F0EE0FFF1FEE0FB4
:1003D000FF1F35973197F1F7E881F9810480F581A6
:1003E000E02DD8018C91811102C060E001C062E073
:1003F000CE01DF91CF911F910F910994CF93DF939D
:10040000EC0120E030E0A9016B897C898D899E890F
:100410000E941F1218161CF4EFA5F8A902C0E9A942
:10042000FAA9DF91CF9109940F931F93DC011296E3
:10043000EC910E2F10E009301105C0F5F801E55CD4
:10044000FF4F0C949E12DC01ED91FC910084F1852C
:10045000E02D29C0DC01ED91FC910284F385E02DB3
:1004600022C0DC01ED91FC910484F585E02D1BC0D8
:10047000DC01ED91FC910684F785E02D14C0DC01D0
:10048000ED91FC910088F189E02D0DC0DC01ED912A
:10049000FC910288F389E02D06C0DC01ED91FC910E
:1004A0000488F589E02D1F910F9109941F910F91F8
:1004B0000895CF92DF92EF92FF92CF93DF93EC01FA
:1004C0000E94320B6B017C018FA198A5A9A5BAA54A
:1004D000B701A601481B590B6A0B7B0B8BA19CA192
:1004E000ADA1BEA1481759076A077B0730F1FE018D
:1004F000ED5BFF4F20818B859C85AD85BE852223DA
:1005000021F00196A11DB11D03C00197A109B109F8
:100510008B879C87AD87BE87E881F9814B855C8599
:100520006D857E850680F781E02DCE010995CFA2ED
:10053000D8A6E9A6FAA681E001C080E0DF91CF91BC
:10054000FF90EF90DF90CF900895CF93DF93FC0161
:100550002281222329F1EC0183810E94130B8C81DB
:100560000E94130B8A81843011F0883029F48D8128
:100570000E94130B8E8105C0833011F0863019F470
:100580008D810E94130B8EA58F3F51F00E94130B9B
:100590006DA581E068278EA5DF91CF910C94A10B0A
:1005A000DF91CF910895CF93DF93FC012281222325
:1005B000A1F0EC010190F081E02D0480F581E02DA7
:1005C00060E009958EA58F3F41F00E94130B6DA549
:1005D0008EA5DF91CF910C94A10BDF91CF9108955F
:1005E000CF92DF92EF92FF920F931F93CF93DF93FF
:1005F000FC012281243041F0283031F0233031F0E9
:10060000263021F012E003C014E001C013E0EC0139
:100610002796E12CF12CC62ED12C01E0C6010E2C20
:1006200002C0959587950A94E2F7688180FD60275E
:10063000FE01349780810E94A10BFFEFEF1AFF0AA1
:100640002196E11658F3DF91CF911F910F91FF9002
:10065000EF90DF90CF9008950F931F93CF93DF9388
:10066000EC0188819981009729F02A813B81261726
:10067000370788F48B016F5F7F4F0E94F313009759
:1006800061F0998388831B830A832C813D81232B0E
:1006900011F4FC01108281E001C080E0DF91CF9174
:1006A0001F910F910895FC01808191810C945B133F
:1006B000FB01DC0111961C921E9213961C921E9255
:1006C000129715961C921E9214978617970749F059
:1006D000608171816115710521F0448155810C940F
:1006E000CE090895FC0111821082138212821582B4
:1006F00014826115710551F0FB0101900020E9F7AA
:100700003197AF01461B570B0C94CE0908954F92B9
:100710005F926F927F92AF92BF92CF92DF92EF92F1
:10072000FF920F931F93CF93DF93EC015A018B013C
:100730002B893C894D895E89B501C8010E94AF0FA4
:10074000882309F451C0CF88D88CE98CFA8C260113
:10075000370177FA709477F87094A3019201B5018C
:10076000C8010E94AF0F87FD0BC0A7019601B5011C
:10077000C8010E941F1218162CF06501780102C0F2
:100780007301620120E030E0A901C701B6010E94B7
:10079000AF0F811105C01BA21CA21DA21EA220C06A
:1007A000A701960160E074E284E799E40E94771162
:1007B0009F770E94F0116BA37CA38DA39EA35E0183
:1007C00083E4A80EB11C11E020E030E0A901C701CC
:1007D000B6010E941F1218160CF010E0F5011083EC
:1007E000CB8ADC8AED8AFE8ADF91CF911F910F912F
:1007F000FF90EF90DF90CF90BF90AF907F906F9081
:100800005F904F9008952F923F924F925F926F9218
:100810007F928F929F92AF92BF92CF92DF92EF9290
:10082000FF920F931F93CF93DF9300D000D0CDB7EB
:10083000DEB71C01FC0187849088A188B28883857B
:100840009485A585B685881A990AAA0ABB0A638980
:100850007489858996899B01AC010E9415106B01F2
:100860007C01F101638D748D858D968D9B01AC01AA
:100870000E940B119B01AC01C701B6010E947711C8
:100880000E94E91181149104A104B104A1F4623021
:100890007105810591050CF07CC0F10113A214A231
:1008A00015A216A2138A148A158A168A13AA14AAE4
:1008B00015AA16AA03C1F10103A914A925A936A9ED
:1008C000ED5BFF4F181419041A041B04FCF41016F6
:1008D0001106120613064CF4681579058A059B0566
:1008E0004CF52081211155C025C0011511052105A8
:1008F000310509F44EC0681579058A059B050CF091
:1009000048C08081882309F444C037C010161106FE
:1009100012061306F4F40027112798010819190983
:100920002A093B0960177107820793071CF420818D
:10093000222379F19B01AC0188279927DC01821BD6
:10094000930BA40BB50BF10183AB94ABA5ABB6AB8A
:1009500020C00115110521053105D9F0CC24DD2475
:100960007601C818D908EA08FB086C157D058E05C4
:100970009F057CF4808181110CC0309520951095E5
:1009800001951F4F2F4F3F4FF10103AB14AB25AB28
:1009900036ABF101C3A8D4A8E5A8F6A881010D5B88
:1009A0001F4FC114D104E104F10491F487A990AD63
:1009B000A1ADB2AD83AF94AFA5AFB6AF81E01814CF
:1009C00019041A041B040CF080E0F801808340C075
:1009D000F10183AC94ACA5ACB6ACA5019401C50102
:1009E000B4010E940B112B013C01C701B6010E940A
:1009F000B60F20E030E040E850E40E94151020E0FF
:100A000030E040E85FE30E940B119B01AC01C301A1
:100A1000B2010E9477119B01AC01C501B4010E9493
:100A20000A114B015C01F101FF9640805180628008
:100A300073809201A3010E941F12181614F0420144
:100A40005301A401B501F10143AF54AF65AF76AFD7
:100A5000FFEFCF1ADF0AEF0AFF0AF101C3AAD4AAF7
:100A6000E5AAF6AA23AD34AD45AD56ADCA01B9012C
:100A700029833A834B835C830E94F011F10163A3C5
:100A800074A385A396A329813A814B815C8160E0A0
:100A900074E284E799E40E947711F101638B748B0F
:100AA000858B968BF8012081211108C0DC01CB01D8
:100AB000B058F101838B948BA58BB68B0F900F9060
:100AC0000F900F90DF91CF911F910F91FF90EF90BA
:100AD000DF90CF90BF90AF909F908F907F906F905E
:100AE0005F904F903F902F9008954F925F926F923A
:100AF0007F928F929F92AF92BF92CF92DF92EF92AE
:100B0000FF92CF93DF93EC016A017B018B8C9C8C6D
:100B1000AD8CBE8C9A01AB01C501B4010E94AF0F30
:100B2000882309F449C06BA97CA98DA99EA90E94BC
:100B3000B60F2B013C01A7019601C501B4010E942B
:100B400077119B01AC01C301B2010E9415100E94F4
:100B5000E9116BAB7CAB8DAB9EABA701960160E05E
:100B600070E080E090E40E9477110E942A1226E54E
:100B70003EE04DE25FE30E94151020E034E244E7DE
:100B800059E40E9415106FAB78AF89AF9AAFCB8E46
:100B9000DC8EED8EFE8ECE01DF91CF91FF90EF9037
:100BA000DF90CF90BF90AF909F908F907F906F908D
:100BB0005F904F900C940304DF91CF91FF90EF90E2
:100BC000DF90CF90BF90AF909F908F907F906F906D
:100BD0005F904F900895CF92EF920F93CF93DF9352
:100BE000EC0187E191E0998388836A831B861C86E8
:100BF0001D861E861F86188A198A1A8A1B8A1C8AD5
:100C00001D8A1E8A80E090E0A0E8BFE38F8B988F5A
:100C1000A98FBA8F1B8E1C8E1D8E1E8E8F8F98A350
:100C2000A9A3BAA31BA21CA21DA21EA261E070E090
:100C30007CA76BA73FEF3EA71FA218A619A61AA66E
:100C40004B832C830D83EE821BAA1CAA1DAA1EAA0D
:100C50001FAA18AE19AE1AAE1BAE1CAE1DAE1EAE4C
:100C6000FE01FF9680839183A283B3833496108222
:100C70001F82188619861A86CC2019F0CE010E9490
:100C8000A50240E050E060E87FE3CE01DF91CF9124
:100C90000F91EF90CF900C9475052F923F924F9249
:100CA0005F926F927F928F929F92AF92BF92CF92FC
:100CB000DF92EF92FF920F931F93CF93DF93CDB705
:100CC000DEB72B970FB6F894DEBF0FBECDBF9B8368
:100CD0008A831B861A86EA81FB818481958101972C
:100CE0002A853B852817390708F010C26A857B855D
:100CF0008A819B810E948709FC01C0800C2C000C1A
:100D0000DD088601005311096A857B856F5F7F4F7F
:100D10008A819B810E948709FC012081022E000CA0
:100D2000330BC901C097063011050CF079C0F801EA
:100D3000EE0FFF1FE35DFE4FE080F18017FF02C062
:100D40000D5F1F4F1595079515950795F801EE0F47
:100D5000FF1F0E0F1F1FF801E80FF91FEE0FFF1FF7
:100D6000E95FFE4F80819181092E000CAA0BBB0B1D
:100D7000F7014385548565857685840F951FA61FE9
:100D8000B71F4785508961897289481759076A07D3
:100D90007B0739F08787908BA18BB28BC7010E94AC
:100DA000030487010D5B1F4FF70147855089618957
:100DB000728983859485A585B685481759076A0782
:100DC0007B0709F49CC140E050E06AE774E4C70186
:100DD0000E948703F701478550896189728983855D
:100DE0009485A585B685481759076A077B07E1F200
:100DF00084179507A607B70724F421E0F80120839C
:100E000002C0F8011082F70183A194A1A5A1B6A1A7
:100E1000892B8A2B8B2B41F2C7010E945902C4CF28
:100E2000FC01EE0FFF1FA1E3B0E0A21BB30BAA0F62
:100E3000BB1FA95FBE4F8D919C91092E000CAA0B80
:100E4000BB0B0630110529F54091FD035091FE03BF
:100E50006091FF0370910004840F951FA61FB71FB8
:100E60008093C8019093C901A093CA01B093CB01AC
:100E7000E95FFE4F80819181092E000CAA0BBB0B0C
:100E800040917503509176036091770370917803D8
:100E900024C04091B9035091BA036091BB03709193
:100EA000BC03840F951FA61FB71F8093C8019093A2
:100EB000C901A093CA01B093CB01E95FFE4F8081C5
:100EC0009181092E000CAA0BBB0B4091310350916C
:100ED00032036091330370913403840F951FA61F72
:100EE000B71F8093CC019093CD01A093CE01B09316
:100EF000CF012801F1E04F22552425E1249D400136
:100F0000259D900C1124F401EC58FD4F3489398350
:100F100038ECA32E31E0B32EC12CD12C10E000E030
:100F2000F12CE12C2981C21608F03EC0F501819117
:100F30009191A191B1915F01F601EE0FFF1FE80DB4
:100F4000F91DEC58FD4F60807180F30123853485D5
:100F500045855685BC01CD01621B730B840B950B37
:100F600097FF07C090958095709561957F4F8F4F43
:100F70009F4F0E94B60FF3012789308D418D528D0E
:100F80000E947711362E272E3C01212F302F4F2D16
:100F90005E2D0E941F1218161CF48101F62CE72CFE
:100FA000FFEFCF1ADF0ABECF20E030E0A901612FAA
:100FB000702F8F2D9E2D0E941F12181654F035E1B0
:100FC000349D7001359DF00C1124870108571D4F89
:100FD00086C0198225E1249D1001259D300C112425
:100FE000A10148575D4F5D834C83EC81FD81808179
:100FF000F981F81720F74981E42FF0E0DF01AA0F0B
:10100000BB1FAA0FBB1FA853BE4F8D909D90AD90E4
:10101000BC903F01660C771CF301E20DF31DEC5808
:10102000FD4FC080D180F60183859485A585B68566
:10103000A5019401281B390B4A0B5B0BCA01B901AE
:101040000E94B60F212F302F4F2D5E2D0E94771159
:10105000AB01BC01F60187859089A189B289881509
:101060009905AA05BB0579F08786908AA18AB28A7C
:10107000C6014E835F83688779870E940304798560
:1010800068855F814E81F301E20DF31DEC58FD4F41
:10109000808191810E948703F981FF5FF983A5CF49
:1010A000C7018D0D911D8D0D911DFC01EC58FD4F5B
:1010B0000190F081E02D478550896189728983858F
:1010C0009485A585B685481759076A077B0751F4AB
:1010D000D394F8018081D81618F3222381F020E000
:1010E000D12CF7CF83A194A1A5A1B6A1892B8A2BDE
:1010F0008B2B19F0CF010E94590221E0E9CF2A85FC
:101100003B852E5F3F4F3B872A87E5CD2B960FB659
:10111000F894DEBF0FBECDBFDF91CF911F910F912D
:10112000FF90EF90DF90CF90BF90AF909F908F9007
:101130007F906F905F904F903F902F9008950F9306
:101140001F93CF93DF93CDB7DEB72C970FB6F894EC
:10115000DEBF0FBECDBF8C016DE971E0CE010196FF
:101160000E94720369E871E0CE0101960E9499091C
:101170006FE471E0CE0101960E94990901151105F5
:1011800019F46CE471E002C069E471E0CE010196EB
:101190000E94990966E771E0CE0101960E949909C3
:1011A00065E971E0CE0101960E949909012B19F4BD
:1011B0006CE471E002C069E471E0CE0101960E9426
:1011C00099096DEA71E0CE0101960E949909BE016C
:1011D0006F5F7F4FCE0107960E945803CE0107969E
:1011E0000E944D06CE0107960E945303CE01019640
:1011F0000E9453032C960FB6F894DEBF0FBECDBFEE
:10120000DF91CF911F910F9108951F93CF93DF939B
:10121000CDB7DEB72C970FB6F894DEBF0FBECDBFAB
:10122000182F6DE971E0CE0101960E94720317320A
:1012300039F0123341F0103261F462E571E005C01B
:101240006BE571E002C064E671E0CE0101960E9498
:10125000F909BE016F5F7F4FCE0107960E945803C8
:10126000CE0107960E944D06CE0107960E945303B9
:10127000CE0101960E9453032C960FB6F894DEBF60
:101280000FBECDBFDF91CF911F9108951F93CF93D4
:10129000DF93CDB7DEB72C970FB6F894DEBF0FBE45
:1012A000CDBF182F6DE971E0CE0101960E94720347
:1012B000173239F0123341F0103261F467E671E011
:1012C00005C060E771E002C069E771E0CE010196F8
:1012D0000E94F909BE016F5F7F4FCE0107960E9401
:1012E0005803CE0107960E944D06CE0107960E9434
:1012F0005303CE0101960E9453032C960FB6F89427
:10130000DEBF0FBECDBFDF91CF911F910895FC01CD
:10131000248135816217730720F4808191810097C1
:1013200029F41092D00180ED91E00895860F971F67
:101330000895EF92FF920F931F93CF93DF93611560
:10134000710511F480E023C0FB0101900020E9F752
:101350003197E61BF70BDC0114960D911C91159744
:101360003097A1F07B01EC010E0F1F1FB8010E9406
:101370002C03882339F3288139818C819D81B70121
:10138000820F931F0E94D4141D830C8381E0DF9190
:10139000CF911F910F91FF90EF900895EF92FF92E0
:1013A0000F931F93CF93DF93EC017B018A01BA0166
:1013B0000E942C032881398181110DC0211531052E
:1013C00019F0C9010E945B13198218821D821C82C8
:1013D0001B821A8206C01D830C83B701C9010E94BB
:1013E000D414CE01DF91CF911F910F91FF90EF9018
:1013F0000895CF93DF93EC016115710559F0FB015E
:1014000001900020E9F73197AF01461B570B0E946E
:10141000CE090CC088819981009711F00E945B135E
:10142000198218821D821C821B821A82CE01DF91D2
:10143000CF910895FC01918D828D981761F0828D76
:10144000DF01A80FB11D5D968C91928D9F5F9F73F8
:10145000928F90E008958FEF9FEF0895FC01918D9A
:10146000828D981731F0828DE80FF11D858D90E007
:1014700008958FEF9FEF0895FC01918D228D892FA4
:1014800090E0805C9F4F821B91098F73992708958C
:1014900081ED91E00E943C0A21E0892B09F420E0D3
:1014A000822F0895FC01848DDF01A80FB11DA35A7E
:1014B000BF4F2C91848D90E001968F739927848F74
:1014C000A689B7892C93A089B1898C9180648C936B
:1014D000938D848D981306C00288F389E02D808156
:1014E0008F7D80830895EF92FF920F931F93CF9388
:1014F000DF93EC0181E0888F9B8D8C8D981305C064
:10150000E889F989808185FD24C0F62E0B8D10E0D5
:101510000F5F1F4F0F731127E02E8C8DE8120CC048
:101520000FB607FCFACFE889F989808185FFF5CFEE
:10153000CE010E94520AF1CF8B8DFE01E80FF11D02
:10154000E35AFF4FF0820B8FEA89FB89808180622A
:1015500007C0EE89FF896083E889F989808180640A
:10156000808381E090E0DF91CF911F910F91FF90F8
:10157000EF900895CF93DF93EC01888D8823C9F015
:10158000EA89FB89808185FD05C0A889B9898C918C
:1015900086FD0FC00FB607FCF5CF808185FFF2CF27
:1015A000A889B9898C9185FFEDCFCE010E94520A9E
:1015B000E7CFDF91CF91089580E090E0892B29F06B
:1015C0000E94480A81110C9400000895CF92DF9286
:1015D000EF92FF920F931F93CF93DF936C017A01E9
:1015E0008B01C0E0D0E0CE15DF0589F0D8016D9108
:1015F0008D01D601ED91FC910190F081E02DC601A5
:101600000995892B11F47E0102C02196ECCFC70108
:10161000DF91CF911F910F91FF90EF90DF90CF90CE
:1016200008950E94BD1490E0FC01E451FF4F249105
:10163000FC01E852FF4F8491882399F090E0880FD5
:10164000991FFC01E253FF4FA591B491FC01EC53AB
:10165000FF4F859194918FB7F894EC91E22BEC9326
:101660008FBF08953FB7F89480913B0490913C045C
:10167000A0913D04B0913E0426B5A89B05C02F3F24
:1016800019F00196A11DB11D3FBFBA2FA92F982FA8
:101690008827820F911DA11DB11DBC01CD0142E023
:1016A000660F771F881F991F4A95D1F708951F92DB
:1016B0000F920FB60F9211242F933F938F939F9306
:1016C000AF93BF938091370490913804A09139046F
:1016D000B0913A043091360423E0230F2D3720F4E3
:1016E0000196A11DB11D05C026E8230F0296A11D7C
:1016F000B11D209336048093370490933804A0934F
:101700003904B0933A0480913B0490913C04A09139
:101710003D04B0913E040196A11DB11D80933B0490
:1017200090933C04A0933D04B0933E04BF91AF91CD
:101730009F918F913F912F910F900FBE0F901F900F
:10174000189590E0FC01E055FF4F3491FC01E45105
:10175000FF4F2491FC01E852FF4FE491EE2309F47E
:101760003BC0332339F1333091F038F43130A9F0F4
:10177000323001F584B58F7D12C0373091F03830AA
:10178000A1F03430B9F4809180008F7D03C0809146
:1017900080008F77809380000DC084B58F7784BDE3
:1017A00009C08091B0008F7703C08091B0008F7D19
:1017B0008093B000F0E0EE0FFF1FEC53FF4FA591B8
:1017C000B4918FB7F894EC91611103C020952E234A
:1017D00001C02E2B2C938FBF08951F920F920FB62E
:1017E0000F9211242F933F934F935F936F937F93A7
:1017F0008F939F93AF93BF93EF93FF9381ED91E00E
:101800000E94520AFF91EF91BF91AF919F918F91EA
:101810007F916F915F914F913F912F910F900FBEEC
:101820000F901F9018951F920F920FB60F921124D0
:101830002F938F939F93EF93FF93E091E101F091AA
:10184000E2018081E091E701F091E80182FD12C0A0
:1018500090818091EA018F5F8F732091EB01821755
:1018600051F0E091EA01F0E0EF52FE4F958F809346
:10187000EA0101C08081FF91EF919F918F912F919B
:101880000F900FBE0F901F9018958EE692E00C946B
:101890005303CF93DF93CDB7DEB72C970FB6F894F1
:1018A000DEBF0FBECDBF789484B5826084BD84B5A1
:1018B000816084BD85B5826085BD85B5816085BD4B
:1018C00080916E00816080936E0010928100809103
:1018D000810082608093810080918100816080938B
:1018E0008100809180008160809380008091B100B0
:1018F00084608093B1008091B00081608093B000DB
:1019000080917A00846080937A0080917A0082606E
:1019100080937A0080917A00816080937A00809130
:101920007A00806880937A001092C100E091E10112
:10193000F091E20182E08083E091DD01F091DE012F
:101940001082E091DF01F091E0018FEC8083109232
:10195000E901E091E501F091E60186E08083E09104
:10196000E301F091E401808180618083E091E301F3
:10197000F091E401808188608083E091E301F0913F
:10198000E401808180688083E091E301F091E401CB
:1019900080818F7D8083BDE2EB2EB1E0FB2EF701CD
:1019A000019111917F0120E030E04AE754E4F80111
:1019B0006789708D818D928D0E94AF0F8823D9F138
:1019C00080E090E0AAE7B4E4F801878B908FA18FC4
:1019D000B28FFF9680839183A283B383F80183A99A
:1019E00094A9A5A9B6A9181619061A061B061CF56E
:1019F00063897489858996899B01AC010E941510C1
:101A00002B013C01F801638D748D858D968D9B01B2
:101A1000AC010E940B119B01AC01C301B2010E94F9
:101A200077110E94E911F80163AB74AB85AB96ABFB
:101A3000C8010E94030440E050E06AE774E4C80172
:101A40000E94870340E050E061E674E4C8010E9410
:101A50007505F9E3EF16F1E0FF0609F0A0CFE0917C
:101A60008802EA3068F481E08E0F80938802F0E00B
:101A7000EE0FFF1FEC58FD4F82EF93E091838083C0
:101A8000E0918802EA3068F481E08E0F809388024A
:101A9000F0E0EE0FFF1FEC58FD4F8AE693E09183D4
:101AA0008083E0919D02EA3068F481E08E0F80939C
:101AB0009D02F0E0EE0FFF1FEC58FD4F8EEA93E021
:101AC000968B858BE0919D02EA3068F481E08E0F61
:101AD00080939D02F0E0EE0FFF1FEC58FD4F86E271
:101AE00093E0968B858B0FE422E5D22E3CE4C32E47
:101AF00042E4342E81ED91E00E943C0A892B09F4E6
:101B00004EC081ED91E00E941A0A89831A82E0900A
:101B10007202F09073022FEFE21AF20AB7018EE61A
:101B200092E00E942C03882399F020916E0230915C
:101B30006F028091720290917302BE016F5F7F4FBE
:101B4000820F931F0E94D414F0927302E0927202EB
:101B50000E94320B2B013C0192E0892E912CA12C8A
:101B6000B12C0E94320BDC01CB0184199509A60926
:101B7000B709883E9340A105B10598F388EE480E59
:101B800083E0581E611C711C8A9489288A288B283E
:101B900009F4B0CF812C912C54018394E2CF809032
:101BA0007202909073028114910409F4FBC0E090DA
:101BB0006E02F0906F02F7018081882309F4F2C071
:101BC0006CE771E0C7010E94CB14892B09F088C033
:101BD000E09100018E2FEE0F990BAA0BBB0BFC01BD
:101BE000E254F109E431F10508F0D6C0EC5BFF4F97
:101BF0000C949E1263E871E0CE0101960E9472037C
:101C0000CE0101960E944D06CE0101960E9453031B
:101C100085E51FC06CE871E0CE0101960E94720359
:101C2000CE0101960E944D06CE0101960E945303FB
:101C300084E40FC06FE871E0CE0101960E94720348
:101C4000CE0101960E944D06CE0101960E945303DB
:101C500086E480930001A0C068E971E0CE0101969E
:101C60000E947203CE0101960E944D06CE0101969C
:101C70000E945303309200018FC06DE971E0CE01E4
:101C800001960E947203CE0101960E944D06CE017C
:101C900001960E945303C09200017EC06DE971E07D
:101CA000CE0101960E947203CE0101960E944D065C
:101CB000CE0101960E945303D09200016DC06DE9E0
:101CC00071E0CE0101960E947203CE0101960E943E
:101CD0004D06CE0101960E945303009300015CC0A3
:101CE000A401B70181ED91E00E94E60A42E050E0D4
:101CF0006BE971E081ED91E00E94E60AE12CF12CA4
:101D00008091720290917302E816F90608F044C0BF
:101D1000B7018EE692E00E948709FC01808187323C
:101D2000B9F1B7018EE692E00E948709FC0180813B
:101D3000823371F180917202909173020197E816DB
:101D4000F90609F49FC04701FFEF8F1A9F0AB401FB
:101D50008EE692E00E948709FC018081873229F596
:101D6000B4018EE692E00E948709FC011081B70160
:101D70008EE692E00E948709FC0180818634A1F101
:101D8000FCF08235A9F1853539F18C3409F449C06C
:101D9000FFEFEF1AFF0AB4CF6DE971E08EE692E033
:101DA0000E94F9090E94DC0AA5CEB4018EE692E0F9
:101DB0000E948709FC018081823309F063C0D0CF83
:101DC000823459F1843421F780E090E00E949F082A
:101DD000812F0E94050951C080E090E00E949F0879
:101DE000812F0E94460949C0812F0E944609D0CF09
:101DF0006DE971E0CE0107960E947203173239F047
:101E0000123341F0103229F56EE971E01EC067EA25
:101E100071E01BC060EB71E018C0812F0E940509C2
:101E2000B7CF6DE971E0CE0107960E9472031732B9
:101E300039F0123341F0103261F463EB71E005C008
:101E40006CEB71E002C065EC71E0CE0107960E9478
:101E5000F909BE01695F7F4FCE0101960E945803C8
:101E6000CE0101960E944D06CE0101960E945303B9
:101E7000CE0107960E9453038BCF81E090E00E9431
:101E80009F0886CF10E273CFCF92EF920F93E1EDD0
:101E9000F1E01382128288EE93E0A0E0B0E0848348
:101EA0009583A683B7838DE391E09183808385EC4E
:101EB00090E09587848784EC90E09787868780EC14
:101EC00090E0918B808B81EC90E0938B828B82EC05
:101ED00090E0958B848B86EC90E0978B868B118EAF
:101EE000128E138E148ECC24C39485E0E82E04E069
:101EF00023E042E061E082EF93E00E94EB0525E001
:101F000044E061E08EEA93E00E94EB0527E046E0C2
:101F100061E08AE693E00E94EB0529E048E061E099
:101F200086E293E00E94EB052BE04AE061E082EE5E
:101F300092E00E94EB052DE04CE061E08EE992E03A
:101F40000E94EB05E4E7F2E0148A11A66DE971E066
:101F50008EE692E00F91EF90CF900C9472030E9466
:101F6000F10F08F481E00895E89409C097FB3EF46E
:101F700090958095709561957F4F8F4F9F4F9923D6
:101F8000A9F0F92F96E9BB279395F6958795779554
:101F90006795B795F111F8CFFAF4BB0F11F460FF14
:101FA0001BC06F5F7F4F8F4F9F4F16C0882311F06C
:101FB00096E911C0772321F09EE8872F762F05C080
:101FC000662371F096E8862F70E060E02AF09A951B
:101FD000660F771F881FDAF7880F9695879597F910
:101FE0000895990F0008550FAA0BE0E8FEEF1616AA
:101FF0001706E807F907C0F012161306E407F507FD
:1020000098F0621B730B840B950B39F40A2661F070
:10201000232B242B252B21F408950A2609F4A14013
:10202000A6958FEF811D811D08950E9428100C94A4
:1020300099100E948B1038F00E94921020F0952386
:1020400011F00C9482100C94881011240C94CD1073
:102050000E94AA1070F3959FC1F3950F50E0551F91
:10206000629FF001729FBB27F00DB11D639FAA27ED
:10207000F00DB11DAA1F649F6627B00DA11D661F3C
:10208000829F2227B00DA11D621F739FB00DA11D5D
:10209000621F839FA00D611D221F749F3327A00D17
:1020A000611D231F849F600D211D822F762F6A2FB3
:1020B00011249F5750409AF0F1F088234AF0EE0F18
:1020C000FF1FBB1F661F771F881F91505040A9F745
:1020D0009E3F510580F00C9482100C94CD105F3F10
:1020E000E4F3983ED4F3869577956795B795F79581
:1020F000E7959F5FC1F7FE2B880F911D96958795F9
:1021000097F9089597F99F6780E870E060E0089577
:102110009FEF80EC089500240A94161617061806FF
:102120000906089500240A941216130614060506DB
:102130000895092E0394000C11F4882352F0BB0F6C
:1021400040F4BF2B11F460FF04C06F5F7F4F8F4FCF
:102150009F4F089557FD9058440F551F59F05F3F0A
:1021600071F04795880F97FB991F61F09F3F79F0B9
:1021700087950895121613061406551FF2CF46953B
:10218000F1DF08C0161617061806991FF1CF8695BD
:102190007105610508940895E894BB2766277727A1
:1021A000CB0197F908952F923F924F925F926F92D1
:1021B0007F928F929F92AF92BF92CF92DF92EF92D7
:1021C000FF920F931F93CF93DF93CDB7DEB7CA1B58
:1021D000DB0B0FB6F894DEBF0FBECDBF09942A8883
:1021E000398848885F846E847D848C849B84AA842B
:1021F000B984C884DF80EE80FD800C811B81AA81B8
:10220000B981CE0FD11D0FB6F894DEBF0FBECDBF82
:10221000ED0108955058BB27AA270E9422110C9463
:1022200099100E948B1038F00E94921020F039F41F
:102230009F3F19F426F40C9488100EF4E095E7FB08
:102240000C948210E92F0E94AA1058F3BA17620763
:1022500073078407950720F079F4A6F50C94CC1049
:102260000EF4E0950B2EBA2FA02D0B01B9019001B1
:102270000C01CA01A0011124FF27591B99F0593FF5
:1022800050F4503E68F11A16F040A22F232F342F3D
:102290004427585FF3CF469537952795A795F0408B
:1022A0005395C9F77EF41F16BA0B620B730B840BA0
:1022B000BAF09150A1F0FF0FBB1F661F771F881F58
:1022C000C2F70EC0BA0F621F731F841F48F48795B0
:1022D00077956795B795F7959E3F08F0B0CF9395A2
:1022E000880F08F09927EE0F9795879508950E941B
:1022F0008B110C9499100E94921058F00E948B1030
:1023000040F029F45F3F29F00C94821051110C9495
:10231000CD100C9488100E94AA1068F39923B1F391
:10232000552391F3951B550BBB27AA2762177307FB
:10233000840738F09F5F5F4F220F331F441FAA1F8F
:10234000A9F335D00E2E3AF0E0E832D0915050404B
:10235000E695001CCAF72BD0FE2F29D0660F771FF9
:10236000881FBB1F261737074807AB07B0E809F0DF
:10237000BB0B802DBF01FF2793585F4F3AF09E3F64
:10238000510578F00C9482100C94CD105F3FE4F36B
:10239000983ED4F3869577956795B795F7959F5FA7
:1023A000C9F7880F911D9695879597F90895E1E0F3
:1023B000660F771F881FBB1F621773078407BA0752
:1023C00020F0621B730B840BBA0BEE1F88F7E095AD
:1023D00008950E94F0116894B1110C94CD100895E5
:1023E0000E94B21088F09F5798F0B92F9927B751E3
:1023F000B0F0E1F0660F771F881F991F1AF0BA95A9
:10240000C9F714C0B13091F00E94CC10B1E008952A
:102410000C94CC10672F782F8827B85F39F0B93F1C
:10242000CCF3869577956795B395D9F73EF490955B
:102430008095709561957F4F8F4F9F4F08950E94B3
:10244000F10F08F48FEF089519F416F40C94881026
:102450000C946A120E94B210B8F39923C9F3B6F330
:102460009F57550B87FF0E9478120024A0E640EA90
:10247000900180585695979528F4805C660F771FD9
:10248000881F20F026173707480730F4621B730BAC
:10249000840B202931294A2BA695179407942025CF
:1024A00031254A2758F7660F771F881F20F0261717
:1024B0003707480730F4620B730B840B200D311D76
:1024C000411DA09581F7B901842F9158880F9695E9
:1024D000879508959F3F31F0915020F48795779527
:1024E0006795B795880F911D9695879597F90895EB
:1024F00091505040660F771F881FD2F70895052E20
:1025000097FB1EF400940E94961257FD07D00E947C
:10251000A41207FC03D04EF40C94961250954095EB
:10252000309521953F4F4F4F5F4F0895909580957F
:10253000709561957F4F8F4F9F4F0895EE0FFF1F4E
:102540000590F491E02D0994A1E21A2EAA1BBB1B61
:10255000FD010DC0AA1FBB1FEE1FFF1FA217B3076F
:10256000E407F50720F0A21BB30BE40BF50B661F85
:10257000771F881F991F1A9469F760957095809549
:1025800090959B01AC01BD01CF010895CF93DF93DE
:102590008230910510F482E090E0E0914104F091E6
:1025A000420420E030E0C0E0D0E0309711F14081FB
:1025B000518148175907C0F04817590761F48281C3
:1025C0009381209719F09B838A832BC090934204B8
:1025D0008093410426C02115310519F04217530795
:1025E00018F49A01BE01DF01EF010280F381E02DB2
:1025F000DCCF2115310509F1281B390B24303105B9
:1026000090F412968D919C9113976115710521F0AC
:10261000FB019383828304C090934204809341041E
:10262000FD01329644C0FD01E20FF31F81939193A7
:10263000225031092D933C933AC020913F043091B0
:102640004004232B41F42091030130910401309385
:10265000400420933F042091010130910201211593
:10266000310541F42DB73EB7409105015091060167
:10267000241B350BE0913F04F0914004E217F3076F
:10268000A0F42E1B3F0B2817390778F0AC014E5FE2
:102690005F4F2417350748F04E0F5F1F50934004DB
:1026A00040933F048193919302C0E0E0F0E0CF01BA
:1026B000DF91CF9108950F931F93CF93DF930097EE
:1026C00009F48CC0FC0132971382128200914104FC
:1026D000109142040115110581F420813181820F8E
:1026E000931F20913F04309140042817390779F552
:1026F000F0934004E0933F0471C0D80140E050E003
:10270000AE17BF0750F412962D913C911397AD016F
:102710002115310509F1D901F3CF9D01DA01338388
:10272000228360817181860F971F8217930769F456
:10273000EC0128813981260F371F2E5F3F4F3183EF
:1027400020838A819B8193838283452B29F4F09394
:102750004204E093410442C01396FC93EE93129717
:10276000ED01499159919E01240F351FE217F3079E
:1027700071F480819181840F951F029611969C932C
:102780008E938281938113969C938E931297E0E0AF
:10279000F0E0D80112968D919C911397009719F053
:1027A000F8018C01F6CF8D919C9198012E5F3F4FDF
:1027B000820F931F20913F0430914004281739075E
:1027C00069F4309729F4109242041092410402C037
:1027D000138212821093400400933F04DF91CF9143
:1027E0001F910F910895A0E0B0E0E9EFF3E10C94A0
:1027F000D710EC01009721F4CB010E94C612B8C09B
:10280000FC01E60FF71F9C0122503109E217F30784
:1028100008F4ACC0D9010D911C9111970617170748
:10282000B0F00530110508F49FC0C8010497861761
:10283000970708F499C002501109061B170B019362
:1028400011936D937C93CF010E945B138DC05B014C
:10285000A01AB10A4C01800E911EA0914104B091C2
:10286000420440E050E0E12CF12C109709F44AC0FA
:10287000A815B905D1F56D907C901197630182E0A0
:10288000C80ED11CCA14DB0480F1A3014A195B09EC
:102890006A0182E0C80ED11C1296BC901297139662
:1028A000AC91B5E0CB16D10440F0B282A383518342
:1028B0004083D9016D937C930AC00E5F1F4FC30103
:1028C000800F911FF90191838083EB2DFA2FE11482
:1028D000F10431F0D7011396FC93EE93129744C0A4
:1028E000F0934204E09341043FC08D919C91119775
:1028F0004817590708F4AC017D0112960D90BC9160
:10290000A02DB3CF80913F04909140048815990584
:10291000E1F446175707C8F4809101019091020134
:10292000009741F48DB79EB7409105015091060183
:10293000841B950BE817F907C8F4F0934004E09363
:102940003F04F901718360830FC0CB010E94C6125E
:102950007C01009759F0A801BE010E94C214CE016B
:102960000E945B13C70104C0CE0102C080E090E06A
:10297000CDB7DEB7EEE00C94F31081E090E0F89470
:102980000C94DB14FB01DC0102C001900D9241505C
:102990005040D8F70895FB01DC018D91019080191A
:1029A0000110D9F3990B0895FB01DC0101900D9200
:1029B0000020E1F7089510E0C1E8D0E004C0FE0176
:1029C0000E949E122196C238D107C9F7F894FFCF12
:1029D0004F000043048000900170FE20032AFEC2D5
:1029E00001CEFF00000000D302A502F0021402FE97
:1029F00001BC019B0167014601F000AC00F203AE8F
:102A0000036A032603E2029E0200000000730AE646
:102A10000A3C0A1A0A2E0ABA0A3731003730003542
:102A200032003230343132313430003231343132EC
:102A30003034300032320030303431303134300014
:102A4000303134313030343000303200526F746104
:102A50007465003531373135303431003732003765
:102A600031363134303531003632000D0A00313024
:102A7000353131313530003131353131303530009B
:102A80003132003330353133313530003331353187
:082A9000333035300033320011
:00000001FF
